{
  "contractName": "test",
  "abi": [
    {
      "inputs": [
        {
          "name": "cName",
          "type": "bytes32"
        }
      ],
      "payable": false,
      "stateMutability": "nonpayable",
      "type": "constructor"
    },
    {
      "constant": false,
      "inputs": [
        {
          "name": "direction",
          "type": "bytes32"
        },
        {
          "name": "name",
          "type": "bytes32"
        }
      ],
      "name": "move",
      "outputs": [],
      "payable": false,
      "stateMutability": "nonpayable",
      "type": "function"
    },
    {
      "constant": true,
      "inputs": [],
      "name": "getHistory",
      "outputs": [
        {
          "name": "dir",
          "type": "bytes32[]"
        },
        {
          "name": "name",
          "type": "bytes32[]"
        }
      ],
      "payable": false,
      "stateMutability": "view",
      "type": "function"
    },
    {
      "constant": true,
      "inputs": [],
      "name": "getsize",
      "outputs": [
        {
          "name": "size",
          "type": "uint256"
        }
      ],
      "payable": false,
      "stateMutability": "view",
      "type": "function"
    },
    {
      "constant": true,
      "inputs": [],
      "name": "getCountAddr",
      "outputs": [
        {
          "name": "count",
          "type": "uint256"
        }
      ],
      "payable": false,
      "stateMutability": "view",
      "type": "function"
    },
    {
      "constant": true,
      "inputs": [
        {
          "name": "addr",
          "type": "address"
        }
      ],
      "name": "getCountStruct",
      "outputs": [
        {
          "name": "count",
          "type": "uint256"
        }
      ],
      "payable": false,
      "stateMutability": "view",
      "type": "function"
    }
  ],
  "bytecode": "0x608060405234801561001057600080fd5b506040516020806107948339810180604052602081101561003057600080fd5b8101908080519060200190929190505050336000806101000a81548173ffffffffffffffffffffffffffffffffffffffff021916908373ffffffffffffffffffffffffffffffffffffffff16021790555080600181905550506106fc806100986000396000f3fe608060405234801561001057600080fd5b50600436106100575760003560e01c80632ae868661461005c578063a361b1841461007a578063aa15efc8146100b2578063f61b2d4914610159578063fd9527c8146101b1575b600080fd5b6100646101cf565b6040518082815260200191505060405180910390f35b6100b06004803603604081101561009057600080fd5b810190808035906020019092919080359060200190929190505050610244565b005b6100ba6103f1565b604051808060200180602001838103835285818151815260200191508051906020019060200280838360005b838110156101015780820151818401526020810190506100e6565b50505050905001838103825284818151815260200191508051906020019060200280838360005b83811015610143578082015181840152602081019050610128565b5050505090500194505050505060405180910390f35b61019b6004803603602081101561016f57600080fd5b81019080803573ffffffffffffffffffffffffffffffffffffffff169060200190929190505050610657565b6040518082815260200191505060405180910390f35b6101b96106a3565b6040518082815260200191505060405180910390f35b6000806000905060008090505b6101e46106a3565b81101561023c5761022b600382815481106101fb57fe5b9060005260206000200160009054906101000a900473ffffffffffffffffffffffffffffffffffffffff16610657565b8201915080806001019150506101dc565b508091505090565b61024c6106b0565b6040518060400160405280848152602001838152509050600080905060008090505b6003805490508110156102f8576003818154811061028857fe5b9060005260206000200160009054906101000a900473ffffffffffffffffffffffffffffffffffffffff1673ffffffffffffffffffffffffffffffffffffffff163373ffffffffffffffffffffffffffffffffffffffff1614156102eb57600191505b808060010191505061026e565b5060008114156103695760033390806001815401808255809150509060018203906000526020600020016000909192909190916101000a81548173ffffffffffffffffffffffffffffffffffffffff021916908373ffffffffffffffffffffffffffffffffffffffff160217905550505b600260003373ffffffffffffffffffffffffffffffffffffffff1673ffffffffffffffffffffffffffffffffffffffff1681526020019081526020016000208290806001815401808255809150509060018203906000526020600020906002020160009091929091909150600082015181600001556020820151816001015550505050505050565b60608060006103fe6101cf565b905060008090506060826040519080825280602002602001820160405280156104365781602001602082028038833980820191505090505b50905060608360405190808252806020026020018201604052801561046a5781602001602082028038833980820191505090505b50905060008090505b61047b6106a3565b8110156106485760008090505b6104c86003838154811061049857fe5b9060005260206000200160009054906101000a900473ffffffffffffffffffffffffffffffffffffffff16610657565b81101561063a5760026000600384815481106104e057fe5b9060005260206000200160009054906101000a900473ffffffffffffffffffffffffffffffffffffffff1673ffffffffffffffffffffffffffffffffffffffff1673ffffffffffffffffffffffffffffffffffffffff168152602001908152602001600020818154811061055057fe5b90600052602060002090600202016000015484868151811061056e57fe5b602002602001018181525050600260006003848154811061058b57fe5b9060005260206000200160009054906101000a900473ffffffffffffffffffffffffffffffffffffffff1673ffffffffffffffffffffffffffffffffffffffff1673ffffffffffffffffffffffffffffffffffffffff16815260200190815260200160002081815481106105fb57fe5b90600052602060002090600202016001015483868151811061061957fe5b60200260200101818152505084806001019550508080600101915050610488565b508080600101915050610473565b50818195509550505050509091565b6000600260008373ffffffffffffffffffffffffffffffffffffffff1673ffffffffffffffffffffffffffffffffffffffff168152602001908152602001600020805490509050919050565b6000600380549050905090565b60405180604001604052806000801916815260200160008019168152509056fea165627a7a72305820a2a609ea57d319b7cf703742eaa5cb43f77cff4c553fd13310a0745b7defe9190029",
  "source": "pragma solidity >=0.4.22 <0.6.0;\n\ncontract Contract {\n    /* Define variable owner of the type address*/\n    address owner;\n\n    /* this function is executed at initialization and sets the owner of the contract */\n    constructor () public { owner = msg.sender; }\n\n    /* Function to recover the funds on the contract */\n    //function kill() public { if (msg.sender == owner) selfdestruct(owner); }\n}\n\ncontract test is Contract {\n    /* define variable greeting of the type string */\n    bytes32 contractName;\n    struct Moves{\n        bytes32 direction;\n        bytes32 username;\n    }\n    mapping(address => Moves[])map;\n    address[] addresses;\n    \n    /* this runs when the contract is executed */\n    constructor (bytes32 cName) public {\n        contractName = cName;\n    }\n\n    function move(bytes32  direction, bytes32  name) public {\n       Moves memory m = Moves(direction,name);\n       uint existe=0;\n       for(uint i=0;i<addresses.length;i++){\n           if(msg.sender == addresses[i]){\n               existe = 1;\n           }\n       }\n       if(existe==0){\n           addresses.push(msg.sender);\n       }\n       map[msg.sender].push(m);\n    }\n    function getHistory()public view returns(bytes32[] memory dir,bytes32[] memory name){\n        uint size = getsize();\n        uint index =0;\n        bytes32[] memory d = new bytes32[](size);\n        bytes32[] memory n = new bytes32[](size);\n        for(uint i=0;i<getCountAddr();i++){\n            for(uint j=0;j<getCountStruct(addresses[i]);j++){\n                d[index] = map[addresses[i]][j].direction;\n                n[index] = map[addresses[i]][j].username;\n                index++;\n            }\n        }\n        return(d,n);\n    }\n\n    function getsize()public view returns(uint size){\n        uint size = 0;\n        for(uint i = 0;i<getCountAddr();i++){\n            size+=getCountStruct(addresses[i]);\n        }\n        return size;\n    }\n    \n    function getCountAddr() public view returns(uint count) {\n        return addresses.length;\n    }\n    function getCountStruct(address addr) public view returns(uint count) {\n        return map[addr].length;\n    }\n}\n",
  "sourcePath": "/home/luis/Desktop/fika/eth/contracts/contract.sol",
  "compiler": {
    "name": "solc",
    "version": "0.5.8+commit.23d335f2.Emscripten.clang"
  },
  "schemaVersion": "3.0.11",
  "updatedAt": "2019-08-08T16:01:13.092Z",
  "devdoc": {
    "methods": {}
  },
  "userdoc": {
    "methods": {}
  }
}